{
  "contractName": "transfer",
  "abi": [
    {
      "inputs": [],
      "name": "noOfFunders",
      "outputs": [
        {
          "internalType": "uint256",
          "name": "",
          "type": "uint256"
        }
      ],
      "stateMutability": "view",
      "type": "function",
      "constant": true
    },
    {
      "stateMutability": "payable",
      "type": "receive",
      "payable": true
    },
    {
      "inputs": [],
      "name": "trans",
      "outputs": [],
      "stateMutability": "payable",
      "type": "function",
      "payable": true
    },
    {
      "inputs": [
        {
          "internalType": "uint256",
          "name": "withDrawAmount",
          "type": "uint256"
        }
      ],
      "name": "withDraw",
      "outputs": [],
      "stateMutability": "nonpayable",
      "type": "function"
    }
  ],
  "bytecode": "0x608060405234801561001057600080fd5b506102fd806100206000396000f3fe6080604052600436106100385760003560e01c806314174f331461004457806347cac45c1461006d578063960e80b7146100985761003f565b3661003f57005b600080fd5b34801561005057600080fd5b5061006b600480360381019061006691906101cd565b6100a2565b005b34801561007957600080fd5b50610082610137565b60405161008f9190610209565b60405180910390f35b6100a061013d565b005b6729a2241af62c00008111156100ed576040517f08c379a00000000000000000000000000000000000000000000000000000000081526004016100e4906102a7565b60405180910390fd5b3373ffffffffffffffffffffffffffffffffffffffff166108fc829081150290604051600060405180830381858888f19350505050158015610133573d6000803e3d6000fd5b5050565b60005481565b33600160008054815260200190815260200160002060006101000a81548173ffffffffffffffffffffffffffffffffffffffff021916908373ffffffffffffffffffffffffffffffffffffffff160217905550565b600080fd5b6000819050919050565b6101aa81610197565b81146101b557600080fd5b50565b6000813590506101c7816101a1565b92915050565b6000602082840312156101e3576101e2610192565b5b60006101f1848285016101b8565b91505092915050565b61020381610197565b82525050565b600060208201905061021e60008301846101fa565b92915050565b600082825260208201905092915050565b7f506c656173652061646420616d6f756274206c6573732074686174203320657460008201527f6800000000000000000000000000000000000000000000000000000000000000602082015250565b6000610291602183610224565b915061029c82610235565b604082019050919050565b600060208201905081810360008301526102c081610284565b905091905056fea2646970667358221220ca78d773c8c296e80983b573cc94a14f90d88a8ce57aff21eeb7c5ceefc8d98364736f6c634300080c0033",
  "immutableReferences": {},
  "source": "// SPDX-License-Identifier: MIT\r\npragma solidity >=0.4.22 <0.9.0;\r\n\r\ncontract transfer {\r\n\r\nuint public noOfFunders;\r\nmapping (uint => address) private funder;\r\n\r\n\r\nreceive() external payable{}\r\n\r\nfunction trans() external payable {\r\n    funder[noOfFunders] = msg.sender;\r\n}\r\n\r\nfunction withDraw(uint withDrawAmount) external {\r\n    require(withDrawAmount <= 3000000000000000000, \"Please add amoubt less that 3 eth\");\r\n    payable(msg.sender).transfer(withDrawAmount);\r\n}\r\n\r\n}",
  "sourcePath": "C:\\Users\\gaura\\Desktop\\BL PROJECTS\\contracts\\transfer.sol",
  "compiler": {
    "name": "solc",
    "version": "0.8.12+commit.f00d7308.Emscripten.clang"
  },
  "schemaVersion": "3.4.6",
  "updatedAt": "2022-03-27T06:37:16.739Z",
  "networkType": "ethereum",
  "devdoc": {
    "kind": "dev",
    "methods": {},
    "version": 1
  },
  "userdoc": {
    "kind": "user",
    "methods": {},
    "version": 1
  }
}